:04C00000000000003C
:10C0040031400004B01286C00C43B01214C0304159
:10C014005C42FF10C24C57005C42FE10C24C5600FA
:10C02400B01230C0B01250C030402CC05C4221006D
:10C034005CC33CF0FF00C24C21005C4222005CD394
:10C044003CF0FF00C24C220003433041B24050C3D5
:10C054007201B240D00260011C4262013CD0100067
:10C06400824C620132D2034330410C125C42210003
:10C074005CE33CF0FF00C24C210003433C4100134D
:10C084003041B01284C0B01284C03041B01212C02A
:02C09400304139
:02FFF2006EC0DF
:02FFFE0004C03D
:040000030000C00435
:00000001FF
